{
  "address": "0x704f79CcC28d97a910C6A8781D46D800B70D9775",
  "abi": [
    {
      "inputs": [
        {
          "internalType": "uint256",
          "name": "_lockTime",
          "type": "uint256"
        },
        {
          "internalType": "address",
          "name": "priceFeedAddr",
          "type": "address"
        }
      ],
      "stateMutability": "nonpayable",
      "type": "constructor"
    },
    {
      "inputs": [],
      "name": "fund",
      "outputs": [],
      "stateMutability": "payable",
      "type": "function"
    },
    {
      "inputs": [
        {
          "internalType": "address",
          "name": "addr",
          "type": "address"
        }
      ],
      "name": "funderAmount",
      "outputs": [
        {
          "internalType": "uint256",
          "name": "",
          "type": "uint256"
        }
      ],
      "stateMutability": "view",
      "type": "function"
    },
    {
      "inputs": [
        {
          "internalType": "address",
          "name": "",
          "type": "address"
        }
      ],
      "name": "funderToAmount",
      "outputs": [
        {
          "internalType": "uint256",
          "name": "",
          "type": "uint256"
        }
      ],
      "stateMutability": "view",
      "type": "function"
    },
    {
      "inputs": [],
      "name": "getChainlinkDataFeedLatestAnswer",
      "outputs": [
        {
          "internalType": "int256",
          "name": "",
          "type": "int256"
        }
      ],
      "stateMutability": "view",
      "type": "function"
    },
    {
      "inputs": [],
      "name": "getFund",
      "outputs": [],
      "stateMutability": "nonpayable",
      "type": "function"
    },
    {
      "inputs": [],
      "name": "getFundSuccess",
      "outputs": [
        {
          "internalType": "bool",
          "name": "",
          "type": "bool"
        }
      ],
      "stateMutability": "view",
      "type": "function"
    },
    {
      "inputs": [],
      "name": "owner",
      "outputs": [
        {
          "internalType": "address",
          "name": "",
          "type": "address"
        }
      ],
      "stateMutability": "view",
      "type": "function"
    },
    {
      "inputs": [],
      "name": "priceFeed",
      "outputs": [
        {
          "internalType": "contract AggregatorV3Interface",
          "name": "",
          "type": "address"
        }
      ],
      "stateMutability": "view",
      "type": "function"
    },
    {
      "inputs": [],
      "name": "refund",
      "outputs": [],
      "stateMutability": "nonpayable",
      "type": "function"
    },
    {
      "inputs": [
        {
          "internalType": "address",
          "name": "addr",
          "type": "address"
        }
      ],
      "name": "setERC20Addr",
      "outputs": [],
      "stateMutability": "nonpayable",
      "type": "function"
    },
    {
      "inputs": [
        {
          "internalType": "address",
          "name": "addr",
          "type": "address"
        },
        {
          "internalType": "uint256",
          "name": "amount",
          "type": "uint256"
        }
      ],
      "name": "setfunderAmount",
      "outputs": [],
      "stateMutability": "nonpayable",
      "type": "function"
    },
    {
      "inputs": [
        {
          "internalType": "address",
          "name": "newOwner",
          "type": "address"
        }
      ],
      "name": "transferOwner",
      "outputs": [],
      "stateMutability": "nonpayable",
      "type": "function"
    }
  ],
  "transactionHash": "0x85169620008563183c1e3eb0d911655e7e9bf432e22fc437c4f760fe9b3fb08e",
  "args": [
    180,
    "0x694AA1769357215DE4FAC081bf1f309aDC325306"
  ],
  "numDeployments": 2,
  "solcInputHash": "aa9d0b392122f477bae2162e0c389d02",
  "bytecode": "0x6080604052678ac7230489e800006002556000600460146101000a81548160ff0219169083151502179055503480156200003857600080fd5b506040516200164a3803806200164a83398181016040528101906200005e91906200019b565b80600160006101000a81548173ffffffffffffffffffffffffffffffffffffffff021916908373ffffffffffffffffffffffffffffffffffffffff16021790555033600360006101000a81548173ffffffffffffffffffffffffffffffffffffffff021916908373ffffffffffffffffffffffffffffffffffffffff16021790555042600581905550816006819055505050620001e2565b600080fd5b6000819050919050565b6200011081620000fb565b81146200011c57600080fd5b50565b600081519050620001308162000105565b92915050565b600073ffffffffffffffffffffffffffffffffffffffff82169050919050565b6000620001638262000136565b9050919050565b620001758162000156565b81146200018157600080fd5b50565b60008151905062000195816200016a565b92915050565b60008060408385031215620001b557620001b4620000f6565b5b6000620001c5858286016200011f565b9250506020620001d88582860162000184565b9150509250929050565b61145880620001f26000396000f3fe6080604052600436106100a75760003560e01c80638da5cb5b116100645780638da5cb5b146101a65780638edd6eb6146101d1578063af5e73a4146101e8578063b60d428814610225578063bea4dfb51461022f578063da4658e01461025a576100a7565b80633d2be276146100ac5780634407e1e8146100d55780634fb2e45d14610112578063590e1ae31461013b578063648c291014610152578063741bef1a1461017b575b600080fd5b3480156100b857600080fd5b506100d360048036038101906100ce9190610c9d565b610285565b005b3480156100e157600080fd5b506100fc60048036038101906100f79190610cdd565b61035c565b6040516101099190610d19565b60405180910390f35b34801561011e57600080fd5b5061013960048036038101906101349190610cdd565b610374565b005b34801561014757600080fd5b50610150610448565b005b34801561015e57600080fd5b5061017960048036038101906101749190610cdd565b610666565b005b34801561018757600080fd5b5061019061073a565b60405161019d9190610d93565b60405180910390f35b3480156101b257600080fd5b506101bb610760565b6040516101c89190610dbd565b60405180910390f35b3480156101dd57600080fd5b506101e6610786565b005b3480156101f457600080fd5b5061020f600480360381019061020a9190610cdd565b6109d1565b60405161021c9190610d19565b60405180910390f35b61022d610a19565b005b34801561023b57600080fd5b50610244610b20565b6040516102519190610df1565b60405180910390f35b34801561026657600080fd5b5061026f610bc1565b60405161027c9190610e27565b60405180910390f35b600460009054906101000a900473ffffffffffffffffffffffffffffffffffffffff1673ffffffffffffffffffffffffffffffffffffffff163373ffffffffffffffffffffffffffffffffffffffff1614610315576040517f08c379a000000000000000000000000000000000000000000000000000000000815260040161030c90610e9f565b60405180910390fd5b806000808473ffffffffffffffffffffffffffffffffffffffff1673ffffffffffffffffffffffffffffffffffffffff168152602001908152602001600020819055505050565b60006020528060005260406000206000915090505481565b3373ffffffffffffffffffffffffffffffffffffffff16600360009054906101000a900473ffffffffffffffffffffffffffffffffffffffff1673ffffffffffffffffffffffffffffffffffffffff1614610404576040517f08c379a00000000000000000000000000000000000000000000000000000000081526004016103fb90610f0b565b60405180910390fd5b80600360006101000a81548173ffffffffffffffffffffffffffffffffffffffff021916908373ffffffffffffffffffffffffffffffffffffffff16021790555050565b6006546005546104589190610f5a565b42101561049a576040517f08c379a000000000000000000000000000000000000000000000000000000000815260040161049190610fda565b60405180910390fd5b6000339050600047905060025481106104e8576040517f08c379a00000000000000000000000000000000000000000000000000000000081526004016104df90611046565b60405180910390fd5b60008060008473ffffffffffffffffffffffffffffffffffffffff1673ffffffffffffffffffffffffffffffffffffffff1681526020019081526020016000205490506000811161056e576040517f08c379a0000000000000000000000000000000000000000000000000000000008152600401610565906110d8565b60405180910390fd5b60008373ffffffffffffffffffffffffffffffffffffffff168260405161059490611129565b60006040518083038185875af1925050503d80600081146105d1576040519150601f19603f3d011682016040523d82523d6000602084013e6105d6565b606091505b5050809150508061061c576040517f08c379a00000000000000000000000000000000000000000000000000000000081526004016106139061118a565b60405180910390fd5b60008060008673ffffffffffffffffffffffffffffffffffffffff1673ffffffffffffffffffffffffffffffffffffffff1681526020019081526020016000208190555050505050565b3373ffffffffffffffffffffffffffffffffffffffff16600360009054906101000a900473ffffffffffffffffffffffffffffffffffffffff1673ffffffffffffffffffffffffffffffffffffffff16146106f6576040517f08c379a00000000000000000000000000000000000000000000000000000000081526004016106ed90610f0b565b60405180910390fd5b80600460006101000a81548173ffffffffffffffffffffffffffffffffffffffff021916908373ffffffffffffffffffffffffffffffffffffffff16021790555050565b600160009054906101000a900473ffffffffffffffffffffffffffffffffffffffff1681565b600360009054906101000a900473ffffffffffffffffffffffffffffffffffffffff1681565b6006546005546107969190610f5a565b4210156107d8576040517f08c379a00000000000000000000000000000000000000000000000000000000081526004016107cf90610fda565b60405180910390fd5b3373ffffffffffffffffffffffffffffffffffffffff16600360009054906101000a900473ffffffffffffffffffffffffffffffffffffffff1673ffffffffffffffffffffffffffffffffffffffff1614610868576040517f08c379a000000000000000000000000000000000000000000000000000000000815260040161085f90610f0b565b60405180910390fd5b6000479050600033905060025461087e83610bd4565b10156108bf576040517f08c379a00000000000000000000000000000000000000000000000000000000081526004016108b6906111f6565b60405180910390fd5b60008173ffffffffffffffffffffffffffffffffffffffff16836040516108e590611129565b60006040518083038185875af1925050503d8060008114610922576040519150601f19603f3d011682016040523d82523d6000602084013e610927565b606091505b5050809150508061096d576040517f08c379a00000000000000000000000000000000000000000000000000000000081526004016109649061118a565b60405180910390fd5b60008060008473ffffffffffffffffffffffffffffffffffffffff1673ffffffffffffffffffffffffffffffffffffffff168152602001908152602001600020819055506001600460146101000a81548160ff021916908315150217905550505050565b60008060008373ffffffffffffffffffffffffffffffffffffffff1673ffffffffffffffffffffffffffffffffffffffff168152602001908152602001600020549050919050565b60003490506000610a2982610bd4565b9050670de0b6b3a7640000811015610a76576040517f08c379a0000000000000000000000000000000000000000000000000000000008152600401610a6d90611262565b60405180910390fd5b600654600554610a869190610f5a565b4210610ac7576040517f08c379a0000000000000000000000000000000000000000000000000000000008152600401610abe90610fda565b60405180910390fd5b346000803373ffffffffffffffffffffffffffffffffffffffff1673ffffffffffffffffffffffffffffffffffffffff1681526020019081526020016000206000828254610b159190610f5a565b925050819055505050565b600080600160009054906101000a900473ffffffffffffffffffffffffffffffffffffffff1673ffffffffffffffffffffffffffffffffffffffff1663feaf968c6040518163ffffffff1660e01b815260040160a060405180830381865afa158015610b90573d6000803e3d6000fd5b505050506040513d601f19601f82011682018060405250810190610bb49190611305565b5050509150508091505090565b600460149054906101000a900460ff1681565b600080610bdf610b20565b90506305f5e1008184610bf29190611380565b610bfc91906113f1565b915050919050565b600080fd5b600073ffffffffffffffffffffffffffffffffffffffff82169050919050565b6000610c3482610c09565b9050919050565b610c4481610c29565b8114610c4f57600080fd5b50565b600081359050610c6181610c3b565b92915050565b6000819050919050565b610c7a81610c67565b8114610c8557600080fd5b50565b600081359050610c9781610c71565b92915050565b60008060408385031215610cb457610cb3610c04565b5b6000610cc285828601610c52565b9250506020610cd385828601610c88565b9150509250929050565b600060208284031215610cf357610cf2610c04565b5b6000610d0184828501610c52565b91505092915050565b610d1381610c67565b82525050565b6000602082019050610d2e6000830184610d0a565b92915050565b6000819050919050565b6000610d59610d54610d4f84610c09565b610d34565b610c09565b9050919050565b6000610d6b82610d3e565b9050919050565b6000610d7d82610d60565b9050919050565b610d8d81610d72565b82525050565b6000602082019050610da86000830184610d84565b92915050565b610db781610c29565b82525050565b6000602082019050610dd26000830184610dae565b92915050565b6000819050919050565b610deb81610dd8565b82525050565b6000602082019050610e066000830184610de2565b92915050565b60008115159050919050565b610e2181610e0c565b82525050565b6000602082019050610e3c6000830184610e18565b92915050565b600082825260208201905092915050565b7f796f7520617265206e6f742074686520657263323020636f6e74726163742100600082015250565b6000610e89601f83610e42565b9150610e9482610e53565b602082019050919050565b60006020820190508181036000830152610eb881610e7c565b9050919050565b7f796f7520617265206e6f7420746865206f776e65722100000000000000000000600082015250565b6000610ef5601683610e42565b9150610f0082610ebf565b602082019050919050565b60006020820190508181036000830152610f2481610ee8565b9050919050565b7f4e487b7100000000000000000000000000000000000000000000000000000000600052601160045260246000fd5b6000610f6582610c67565b9150610f7083610c67565b9250828201905080821115610f8857610f87610f2b565b5b92915050565b7f77696e646f7720697320636c6f73656421000000000000000000000000000000600082015250565b6000610fc4601183610e42565b9150610fcf82610f8e565b602082019050919050565b60006020820190508181036000830152610ff381610fb7565b9050919050565b7f5461726765742069732072656163686564210000000000000000000000000000600082015250565b6000611030601283610e42565b915061103b82610ffa565b602082019050919050565b6000602082019050818103600083015261105f81611023565b9050919050565b7f796f752068617665206e6f2062616c616e636520696e207468697320636f6e7460008201527f7261637421000000000000000000000000000000000000000000000000000000602082015250565b60006110c2602583610e42565b91506110cd82611066565b604082019050919050565b600060208201905081810360008301526110f1816110b5565b9050919050565b600081905092915050565b50565b60006111136000836110f8565b915061111e82611103565b600082019050919050565b600061113482611106565b9150819050919050565b7f4661696c65642100000000000000000000000000000000000000000000000000600082015250565b6000611174600783610e42565b915061117f8261113e565b602082019050919050565b600060208201905081810360008301526111a381611167565b9050919050565b7f4e6f742052656163682054617267657420416d6f756e74210000000000000000600082015250565b60006111e0601883610e42565b91506111eb826111aa565b602082019050919050565b6000602082019050818103600083015261120f816111d3565b9050919050565b7f55534420416d6f756e7420746f6f206c6f772100000000000000000000000000600082015250565b600061124c601383610e42565b915061125782611216565b602082019050919050565b6000602082019050818103600083015261127b8161123f565b9050919050565b600069ffffffffffffffffffff82169050919050565b6112a181611282565b81146112ac57600080fd5b50565b6000815190506112be81611298565b92915050565b6112cd81610dd8565b81146112d857600080fd5b50565b6000815190506112ea816112c4565b92915050565b6000815190506112ff81610c71565b92915050565b600080600080600060a0868803121561132157611320610c04565b5b600061132f888289016112af565b9550506020611340888289016112db565b9450506040611351888289016112f0565b9350506060611362888289016112f0565b9250506080611373888289016112af565b9150509295509295909350565b600061138b82610c67565b915061139683610c67565b92508282026113a481610c67565b915082820484148315176113bb576113ba610f2b565b5b5092915050565b7f4e487b7100000000000000000000000000000000000000000000000000000000600052601260045260246000fd5b60006113fc82610c67565b915061140783610c67565b925082611417576114166113c2565b5b82820490509291505056fea2646970667358221220acdd6ce096f4e1887c0cc9ccf1396cd5995123744c8b79793ee67c676f93de3964736f6c63430008180033",
  "devdoc": {
    "kind": "dev",
    "methods": {},
    "version": 1
  },
  "userdoc": {
    "kind": "user",
    "methods": {
      "getChainlinkDataFeedLatestAnswer()": {
        "notice": "Returns the latest answer."
      }
    },
    "version": 1
  },
  "storageLayout": {
    "storage": [
      {
        "astId": 53,
        "contract": "contracts/FundMe.sol:FundMe",
        "label": "funderToAmount",
        "offset": 0,
        "slot": "0",
        "type": "t_mapping(t_address,t_uint256)"
      },
      {
        "astId": 63,
        "contract": "contracts/FundMe.sol:FundMe",
        "label": "priceFeed",
        "offset": 0,
        "slot": "1",
        "type": "t_contract(AggregatorV3Interface)45"
      },
      {
        "astId": 70,
        "contract": "contracts/FundMe.sol:FundMe",
        "label": "TARGET_AMOUNT",
        "offset": 0,
        "slot": "2",
        "type": "t_uint256"
      },
      {
        "astId": 72,
        "contract": "contracts/FundMe.sol:FundMe",
        "label": "owner",
        "offset": 0,
        "slot": "3",
        "type": "t_address"
      },
      {
        "astId": 74,
        "contract": "contracts/FundMe.sol:FundMe",
        "label": "erc20TokenAddr",
        "offset": 0,
        "slot": "4",
        "type": "t_address"
      },
      {
        "astId": 77,
        "contract": "contracts/FundMe.sol:FundMe",
        "label": "getFundSuccess",
        "offset": 20,
        "slot": "4",
        "type": "t_bool"
      },
      {
        "astId": 79,
        "contract": "contracts/FundMe.sol:FundMe",
        "label": "deployTime",
        "offset": 0,
        "slot": "5",
        "type": "t_uint256"
      },
      {
        "astId": 81,
        "contract": "contracts/FundMe.sol:FundMe",
        "label": "lockTime",
        "offset": 0,
        "slot": "6",
        "type": "t_uint256"
      }
    ],
    "types": {
      "t_address": {
        "encoding": "inplace",
        "label": "address",
        "numberOfBytes": "20"
      },
      "t_bool": {
        "encoding": "inplace",
        "label": "bool",
        "numberOfBytes": "1"
      },
      "t_contract(AggregatorV3Interface)45": {
        "encoding": "inplace",
        "label": "contract AggregatorV3Interface",
        "numberOfBytes": "20"
      },
      "t_mapping(t_address,t_uint256)": {
        "encoding": "mapping",
        "key": "t_address",
        "label": "mapping(address => uint256)",
        "numberOfBytes": "32",
        "value": "t_uint256"
      },
      "t_uint256": {
        "encoding": "inplace",
        "label": "uint256",
        "numberOfBytes": "32"
      }
    }
  }
}