{
  "address": "0x92d2a108a7Fe7f365faD3f4F3fe70385a2082515",
  "abi": [
    {
      "inputs": [
        {
          "internalType": "uint256",
          "name": "_lockTime",
          "type": "uint256"
        }
      ],
      "stateMutability": "nonpayable",
      "type": "constructor"
    },
    {
      "inputs": [],
      "name": "fund",
      "outputs": [],
      "stateMutability": "payable",
      "type": "function"
    },
    {
      "inputs": [
        {
          "internalType": "address",
          "name": "addr",
          "type": "address"
        }
      ],
      "name": "funderAmount",
      "outputs": [
        {
          "internalType": "uint256",
          "name": "",
          "type": "uint256"
        }
      ],
      "stateMutability": "view",
      "type": "function"
    },
    {
      "inputs": [
        {
          "internalType": "address",
          "name": "",
          "type": "address"
        }
      ],
      "name": "funderToAmount",
      "outputs": [
        {
          "internalType": "uint256",
          "name": "",
          "type": "uint256"
        }
      ],
      "stateMutability": "view",
      "type": "function"
    },
    {
      "inputs": [],
      "name": "getChainlinkDataFeedLatestAnswer",
      "outputs": [
        {
          "internalType": "int256",
          "name": "",
          "type": "int256"
        }
      ],
      "stateMutability": "view",
      "type": "function"
    },
    {
      "inputs": [],
      "name": "getFund",
      "outputs": [],
      "stateMutability": "nonpayable",
      "type": "function"
    },
    {
      "inputs": [],
      "name": "getFundSuccess",
      "outputs": [
        {
          "internalType": "bool",
          "name": "",
          "type": "bool"
        }
      ],
      "stateMutability": "view",
      "type": "function"
    },
    {
      "inputs": [],
      "name": "owner",
      "outputs": [
        {
          "internalType": "address",
          "name": "",
          "type": "address"
        }
      ],
      "stateMutability": "view",
      "type": "function"
    },
    {
      "inputs": [],
      "name": "refund",
      "outputs": [],
      "stateMutability": "nonpayable",
      "type": "function"
    },
    {
      "inputs": [
        {
          "internalType": "address",
          "name": "addr",
          "type": "address"
        }
      ],
      "name": "setERC20Addr",
      "outputs": [],
      "stateMutability": "nonpayable",
      "type": "function"
    },
    {
      "inputs": [
        {
          "internalType": "address",
          "name": "addr",
          "type": "address"
        },
        {
          "internalType": "uint256",
          "name": "amount",
          "type": "uint256"
        }
      ],
      "name": "setfunderAmount",
      "outputs": [],
      "stateMutability": "nonpayable",
      "type": "function"
    },
    {
      "inputs": [
        {
          "internalType": "address",
          "name": "newOwner",
          "type": "address"
        }
      ],
      "name": "transferOwner",
      "outputs": [],
      "stateMutability": "nonpayable",
      "type": "function"
    }
  ],
  "transactionHash": "0x4c6119b219b61e45606b788cca6e78d663512d3f0f00f6c3ae0bbe9d85d3d4b3",
  "args": [
    600
  ],
  "numDeployments": 1,
  "solcInputHash": "e95c4b8dfb7a67ea39fdba61d238a5a3",
  "bytecode": "0x6080604052678ac7230489e800006002556000600460146101000a81548160ff0219169083151502179055503480156200003857600080fd5b506040516200150d3803806200150d83398181016040528101906200005e919062000149565b73694aa1769357215de4fac081bf1f309adc325306600160006101000a81548173ffffffffffffffffffffffffffffffffffffffff021916908373ffffffffffffffffffffffffffffffffffffffff16021790555033600360006101000a81548173ffffffffffffffffffffffffffffffffffffffff021916908373ffffffffffffffffffffffffffffffffffffffff1602179055504260058190555080600681905550506200017b565b600080fd5b6000819050919050565b62000123816200010e565b81146200012f57600080fd5b50565b600081519050620001438162000118565b92915050565b60006020828403121562000162576200016162000109565b5b6000620001728482850162000132565b91505092915050565b611382806200018b6000396000f3fe60806040526004361061009c5760003560e01c80638da5cb5b116100645780638da5cb5b146101705780638edd6eb61461019b578063af5e73a4146101b2578063b60d4288146101ef578063bea4dfb5146101f9578063da4658e0146102245761009c565b80633d2be276146100a15780634407e1e8146100ca5780634fb2e45d14610107578063590e1ae314610130578063648c291014610147575b600080fd5b3480156100ad57600080fd5b506100c860048036038101906100c39190610c41565b61024f565b005b3480156100d657600080fd5b506100f160048036038101906100ec9190610c81565b610326565b6040516100fe9190610cbd565b60405180910390f35b34801561011357600080fd5b5061012e60048036038101906101299190610c81565b61033e565b005b34801561013c57600080fd5b50610145610412565b005b34801561015357600080fd5b5061016e60048036038101906101699190610c81565b610630565b005b34801561017c57600080fd5b50610185610704565b6040516101929190610ce7565b60405180910390f35b3480156101a757600080fd5b506101b061072a565b005b3480156101be57600080fd5b506101d960048036038101906101d49190610c81565b610975565b6040516101e69190610cbd565b60405180910390f35b6101f76109bd565b005b34801561020557600080fd5b5061020e610ac4565b60405161021b9190610d1b565b60405180910390f35b34801561023057600080fd5b50610239610b65565b6040516102469190610d51565b60405180910390f35b600460009054906101000a900473ffffffffffffffffffffffffffffffffffffffff1673ffffffffffffffffffffffffffffffffffffffff163373ffffffffffffffffffffffffffffffffffffffff16146102df576040517f08c379a00000000000000000000000000000000000000000000000000000000081526004016102d690610dc9565b60405180910390fd5b806000808473ffffffffffffffffffffffffffffffffffffffff1673ffffffffffffffffffffffffffffffffffffffff168152602001908152602001600020819055505050565b60006020528060005260406000206000915090505481565b3373ffffffffffffffffffffffffffffffffffffffff16600360009054906101000a900473ffffffffffffffffffffffffffffffffffffffff1673ffffffffffffffffffffffffffffffffffffffff16146103ce576040517f08c379a00000000000000000000000000000000000000000000000000000000081526004016103c590610e35565b60405180910390fd5b80600360006101000a81548173ffffffffffffffffffffffffffffffffffffffff021916908373ffffffffffffffffffffffffffffffffffffffff16021790555050565b6006546005546104229190610e84565b421015610464576040517f08c379a000000000000000000000000000000000000000000000000000000000815260040161045b90610f04565b60405180910390fd5b6000339050600047905060025481106104b2576040517f08c379a00000000000000000000000000000000000000000000000000000000081526004016104a990610f70565b60405180910390fd5b60008060008473ffffffffffffffffffffffffffffffffffffffff1673ffffffffffffffffffffffffffffffffffffffff16815260200190815260200160002054905060008111610538576040517f08c379a000000000000000000000000000000000000000000000000000000000815260040161052f90611002565b60405180910390fd5b60008373ffffffffffffffffffffffffffffffffffffffff168260405161055e90611053565b60006040518083038185875af1925050503d806000811461059b576040519150601f19603f3d011682016040523d82523d6000602084013e6105a0565b606091505b505080915050806105e6576040517f08c379a00000000000000000000000000000000000000000000000000000000081526004016105dd906110b4565b60405180910390fd5b60008060008673ffffffffffffffffffffffffffffffffffffffff1673ffffffffffffffffffffffffffffffffffffffff1681526020019081526020016000208190555050505050565b3373ffffffffffffffffffffffffffffffffffffffff16600360009054906101000a900473ffffffffffffffffffffffffffffffffffffffff1673ffffffffffffffffffffffffffffffffffffffff16146106c0576040517f08c379a00000000000000000000000000000000000000000000000000000000081526004016106b790610e35565b60405180910390fd5b80600460006101000a81548173ffffffffffffffffffffffffffffffffffffffff021916908373ffffffffffffffffffffffffffffffffffffffff16021790555050565b600360009054906101000a900473ffffffffffffffffffffffffffffffffffffffff1681565b60065460055461073a9190610e84565b42101561077c576040517f08c379a000000000000000000000000000000000000000000000000000000000815260040161077390610f04565b60405180910390fd5b3373ffffffffffffffffffffffffffffffffffffffff16600360009054906101000a900473ffffffffffffffffffffffffffffffffffffffff1673ffffffffffffffffffffffffffffffffffffffff161461080c576040517f08c379a000000000000000000000000000000000000000000000000000000000815260040161080390610e35565b60405180910390fd5b6000479050600033905060025461082283610b78565b1015610863576040517f08c379a000000000000000000000000000000000000000000000000000000000815260040161085a90611120565b60405180910390fd5b60008173ffffffffffffffffffffffffffffffffffffffff168360405161088990611053565b60006040518083038185875af1925050503d80600081146108c6576040519150601f19603f3d011682016040523d82523d6000602084013e6108cb565b606091505b50508091505080610911576040517f08c379a0000000000000000000000000000000000000000000000000000000008152600401610908906110b4565b60405180910390fd5b60008060008473ffffffffffffffffffffffffffffffffffffffff1673ffffffffffffffffffffffffffffffffffffffff168152602001908152602001600020819055506001600460146101000a81548160ff021916908315150217905550505050565b60008060008373ffffffffffffffffffffffffffffffffffffffff1673ffffffffffffffffffffffffffffffffffffffff168152602001908152602001600020549050919050565b600034905060006109cd82610b78565b9050670de0b6b3a7640000811015610a1a576040517f08c379a0000000000000000000000000000000000000000000000000000000008152600401610a119061118c565b60405180910390fd5b600654600554610a2a9190610e84565b4210610a6b576040517f08c379a0000000000000000000000000000000000000000000000000000000008152600401610a6290610f04565b60405180910390fd5b346000803373ffffffffffffffffffffffffffffffffffffffff1673ffffffffffffffffffffffffffffffffffffffff1681526020019081526020016000206000828254610ab99190610e84565b925050819055505050565b600080600160009054906101000a900473ffffffffffffffffffffffffffffffffffffffff1673ffffffffffffffffffffffffffffffffffffffff1663feaf968c6040518163ffffffff1660e01b815260040160a060405180830381865afa158015610b34573d6000803e3d6000fd5b505050506040513d601f19601f82011682018060405250810190610b58919061122f565b5050509150508091505090565b600460149054906101000a900460ff1681565b600080610b83610ac4565b90506305f5e1008184610b9691906112aa565b610ba0919061131b565b915050919050565b600080fd5b600073ffffffffffffffffffffffffffffffffffffffff82169050919050565b6000610bd882610bad565b9050919050565b610be881610bcd565b8114610bf357600080fd5b50565b600081359050610c0581610bdf565b92915050565b6000819050919050565b610c1e81610c0b565b8114610c2957600080fd5b50565b600081359050610c3b81610c15565b92915050565b60008060408385031215610c5857610c57610ba8565b5b6000610c6685828601610bf6565b9250506020610c7785828601610c2c565b9150509250929050565b600060208284031215610c9757610c96610ba8565b5b6000610ca584828501610bf6565b91505092915050565b610cb781610c0b565b82525050565b6000602082019050610cd26000830184610cae565b92915050565b610ce181610bcd565b82525050565b6000602082019050610cfc6000830184610cd8565b92915050565b6000819050919050565b610d1581610d02565b82525050565b6000602082019050610d306000830184610d0c565b92915050565b60008115159050919050565b610d4b81610d36565b82525050565b6000602082019050610d666000830184610d42565b92915050565b600082825260208201905092915050565b7f796f7520617265206e6f742074686520657263323020636f6e74726163742100600082015250565b6000610db3601f83610d6c565b9150610dbe82610d7d565b602082019050919050565b60006020820190508181036000830152610de281610da6565b9050919050565b7f796f7520617265206e6f7420746865206f776e65722100000000000000000000600082015250565b6000610e1f601683610d6c565b9150610e2a82610de9565b602082019050919050565b60006020820190508181036000830152610e4e81610e12565b9050919050565b7f4e487b7100000000000000000000000000000000000000000000000000000000600052601160045260246000fd5b6000610e8f82610c0b565b9150610e9a83610c0b565b9250828201905080821115610eb257610eb1610e55565b5b92915050565b7f77696e646f7720697320636c6f73656421000000000000000000000000000000600082015250565b6000610eee601183610d6c565b9150610ef982610eb8565b602082019050919050565b60006020820190508181036000830152610f1d81610ee1565b9050919050565b7f5461726765742069732072656163686564210000000000000000000000000000600082015250565b6000610f5a601283610d6c565b9150610f6582610f24565b602082019050919050565b60006020820190508181036000830152610f8981610f4d565b9050919050565b7f796f752068617665206e6f2062616c616e636520696e207468697320636f6e7460008201527f7261637421000000000000000000000000000000000000000000000000000000602082015250565b6000610fec602583610d6c565b9150610ff782610f90565b604082019050919050565b6000602082019050818103600083015261101b81610fdf565b9050919050565b600081905092915050565b50565b600061103d600083611022565b91506110488261102d565b600082019050919050565b600061105e82611030565b9150819050919050565b7f4661696c65642100000000000000000000000000000000000000000000000000600082015250565b600061109e600783610d6c565b91506110a982611068565b602082019050919050565b600060208201905081810360008301526110cd81611091565b9050919050565b7f4e6f742052656163682054617267657420416d6f756e74210000000000000000600082015250565b600061110a601883610d6c565b9150611115826110d4565b602082019050919050565b60006020820190508181036000830152611139816110fd565b9050919050565b7f55534420416d6f756e7420746f6f206c6f772100000000000000000000000000600082015250565b6000611176601383610d6c565b915061118182611140565b602082019050919050565b600060208201905081810360008301526111a581611169565b9050919050565b600069ffffffffffffffffffff82169050919050565b6111cb816111ac565b81146111d657600080fd5b50565b6000815190506111e8816111c2565b92915050565b6111f781610d02565b811461120257600080fd5b50565b600081519050611214816111ee565b92915050565b60008151905061122981610c15565b92915050565b600080600080600060a0868803121561124b5761124a610ba8565b5b6000611259888289016111d9565b955050602061126a88828901611205565b945050604061127b8882890161121a565b935050606061128c8882890161121a565b925050608061129d888289016111d9565b9150509295509295909350565b60006112b582610c0b565b91506112c083610c0b565b92508282026112ce81610c0b565b915082820484148315176112e5576112e4610e55565b5b5092915050565b7f4e487b7100000000000000000000000000000000000000000000000000000000600052601260045260246000fd5b600061132682610c0b565b915061133183610c0b565b925082611341576113406112ec565b5b82820490509291505056fea2646970667358221220b5c24b49cf90784a1d5a0a22c61ad3d53f9ba4c1146794339da81035ad77889764736f6c63430008180033",
  "devdoc": {
    "kind": "dev",
    "methods": {},
    "version": 1
  },
  "userdoc": {
    "kind": "user",
    "methods": {
      "getChainlinkDataFeedLatestAnswer()": {
        "notice": "Returns the latest answer."
      }
    },
    "version": 1
  },
  "storageLayout": {
    "storage": [
      {
        "astId": 53,
        "contract": "contracts/FundMe.sol:FundMe",
        "label": "funderToAmount",
        "offset": 0,
        "slot": "0",
        "type": "t_mapping(t_address,t_uint256)"
      },
      {
        "astId": 63,
        "contract": "contracts/FundMe.sol:FundMe",
        "label": "priceFeed",
        "offset": 0,
        "slot": "1",
        "type": "t_contract(AggregatorV3Interface)45"
      },
      {
        "astId": 70,
        "contract": "contracts/FundMe.sol:FundMe",
        "label": "TARGET_AMOUNT",
        "offset": 0,
        "slot": "2",
        "type": "t_uint256"
      },
      {
        "astId": 72,
        "contract": "contracts/FundMe.sol:FundMe",
        "label": "owner",
        "offset": 0,
        "slot": "3",
        "type": "t_address"
      },
      {
        "astId": 74,
        "contract": "contracts/FundMe.sol:FundMe",
        "label": "erc20TokenAddr",
        "offset": 0,
        "slot": "4",
        "type": "t_address"
      },
      {
        "astId": 77,
        "contract": "contracts/FundMe.sol:FundMe",
        "label": "getFundSuccess",
        "offset": 20,
        "slot": "4",
        "type": "t_bool"
      },
      {
        "astId": 79,
        "contract": "contracts/FundMe.sol:FundMe",
        "label": "deployTime",
        "offset": 0,
        "slot": "5",
        "type": "t_uint256"
      },
      {
        "astId": 81,
        "contract": "contracts/FundMe.sol:FundMe",
        "label": "lockTime",
        "offset": 0,
        "slot": "6",
        "type": "t_uint256"
      }
    ],
    "types": {
      "t_address": {
        "encoding": "inplace",
        "label": "address",
        "numberOfBytes": "20"
      },
      "t_bool": {
        "encoding": "inplace",
        "label": "bool",
        "numberOfBytes": "1"
      },
      "t_contract(AggregatorV3Interface)45": {
        "encoding": "inplace",
        "label": "contract AggregatorV3Interface",
        "numberOfBytes": "20"
      },
      "t_mapping(t_address,t_uint256)": {
        "encoding": "mapping",
        "key": "t_address",
        "label": "mapping(address => uint256)",
        "numberOfBytes": "32",
        "value": "t_uint256"
      },
      "t_uint256": {
        "encoding": "inplace",
        "label": "uint256",
        "numberOfBytes": "32"
      }
    }
  }
}